:020000040800F2
:1000000088660020310E0008090400080B0400086F
:100010000F04000813040008170400080000000083
:100020000000000000000000000000001B040008A9
:100030001D040008000000001F040008210400083F
:100040004B0E00084B0E00084B0E00084B0E00082C
:100050004B0E00084B0E00084B0E00084B0E00081C
:100060004B0E00084B0E00084B0E00084B0E00080C
:100070004B0E00084B0E00084B0E00084B0E0008FC
:100080004B0E00084B0E00084B0E00084B0E0008EC
:100090004B0E00084B0E00084B0E00084B0E0008DC
:1000A0004B0E00084B0E00084B0E00084B0E0008CC
:1000B0004B0E0008ED0B00084B0E00084B0E00081D
:1000C0004B0E00084B0E00084B0E00084B0E0008AC
:1000D0004B0E0008A50D00084B0E00084B0E000843
:1000E0004B0E00084B0E00084B0E00084B0E00088C
:1000F0004B0E00084B0E00084B0E00084B0E00087C
:100100004B0E00084B0E00084B0E00084B0E00086B
:100110004B0E00084B0E00084B0E00084B0E00085B
:100120004B0E00084B0E00084B0E00084B0E00084B
:1001300000F002F800F069F80AA090E8000C824490
:100140008344AAF10107DA4501D100F05EF8AFF26D
:10015000090EBAE80F0013F0010F18BFFB1A43F0A5
:100160000103184710CA000030CA00000A444FF0CB
:10017000000C10F8013B13F0070408BF10F8014B06
:100180001D1108BF10F8015B641E05D010F8016B4B
:10019000641E01F8016BF9D113F0080F1EBF10F8AF
:1001A000014BAD1C0C1B09D16D1E58BF01F801CBD2
:1001B000FAD505E014F8016B01F8016B6D1EF9D555
:1001C0009142D6D37047000000230024002500266A
:1001D000103A28BF78C1FBD8520728BF30C148BFAA
:1001E0000B607047642904F01785782904F0508566
:1001F000632904F0C087002070471FB59DE8030005
:1002000004F020FF1FBD10B510BD05F010F8114619
:10021000FFF7F3FF00F008F804F002FE03B4FFF765
:10022000F2FF03BC00F064FD1FB5002500F0ECFCFC
:100230004FF4A06000F01CFE4FF4E13000F066FDCA
:1002400000F0E0F900F000FB19E000F0DDFA0546EF
:100250004EF61770854203D045F21720854200D133
:100260000EE02BA004F07CFC4FF4FA7000F009FDC6
:100270002DA004F075FC4FF4FA7000F002FDE4E7E5
:1002800000BF2FA004F06CFC00BF40E0002000F095
:10029000D3F90446022C27D137A004F061FC3DA01D
:1002A00004F05EFC15E04248008800F4004080B194
:1002B0003F480088C0F30D00ADF80C003D480290A7
:1002C000BDF80C10029802F059FC00203849088053
:1002D00000E0E8E700BFBDF80C200021029800F024
:1002E000AAFB35A004F03CFC012C10D139A004F08D
:1002F00037FCBDF80C200021009800F004FB3CA066
:1003000004F02EFCBDF80C10009802F037FCBDE79D
:100310005732355131323820436865636B2046616E
:10032000696C6564210D0A00506C6561736520433A
:100330006865636B2120202020202020200D0A00EA
:10034000573235513132382052656164792150720B
:10035000657373204B45593120746F20777269742F
:100360006520616E64204B45593020746F207265A2
:1003700061642E0D0A00000053746172742057727C
:1003800069746520573235513132382E2E2E2E0D9C
:100390000A000000706C6561736520696E70757489
:1003A000206B657920746F2073746F72653A00005A
:1003B00020000020201400205732355131323820DF
:1003C00057726974652046696E6973686564210DAA
:1003D0000A000000537461727420526561642057F2
:1003E0003235513132382E2E2E2E200D0A000000CB
:1003F00054686520446174612052656164656420BD
:1004000049733A2020000000704700BFFEE700BF9C
:10041000FEE700BFFEE700BFFEE77047704770478A
:10042000704700000CB50020019000906C480068F7
:1004300040F480306A49086000BF6948006800F4F1
:10044000003000900198401C0190009818B9019864
:10045000B0F5A06FF1D16248006800F4003010B12F
:100460000120009001E0002000900098012843D175
:100470005C48006840F010005A490860084600686F
:1004800020F0030008600846006840F002000860A1
:1004900053484068524948600846406848600846EA
:1004A000406840F4806048600846406820F47C1052
:1004B00048600846406840F4E81048600846006814
:1004C00040F08070086000BF4548006800F0007090
:1004D0000028F9D04248406820F0030040494860B5
:1004E0000846406840F00200486000BF3C48406851
:1004F00000F00C000828F9D10CBD10B5FFF792FFF1
:1005000010BD10B53648006840F00100344908605D
:100510000846406834490840314948600846006848
:10052000324908402E4908600846006820F48020BF
:1005300008600846406820F4FE0048604FF41F0041
:100540008860FFF7DAFF4FF000602949086010BDAE
:1005500010B5002100200022214B5B6803F00C0144
:1005600021B1042906D0082928D107E0214B224CCB
:10057000236027E01F4B204C236023E0184B5B686F
:1005800003F47010164B5B6803F48032022303EB14
:10059000904022B9194B4343174C23600DE0104B98
:1005A0005B6803F4003323B1144B4343124C2360C4
:1005B00003E0104B4343104C236003E00D4B0E4C03
:1005C000236000BF00BF064B5B68C3F303130C4CF2
:1005D000E15C094B1B68CB40074C236010BD000059
:1005E00000100240002002400000FFF8FFFFF6FE6E
:1005F00008ED00E000127A000000002000093D0034
:100600000400002008B50121442000F0BBFF1C209D
:10061000ADF8000048208DF803006946354800F029
:10062000F5FC0120ADF8000028208DF80300694694
:10063000314800F0EBFC08BD10B5044614B10120B0
:100640002E4908702D480078002837D010212948FD
:1006500000F06FFD78B10821264800F06AFD50B126
:100660000421244800F065FD28B10121224800F052
:1006700060FD012822D10A2000F003FB00201F4961
:10068000087010211B4800F054FD08B9012010BD6E
:100690000821184800F04DFD08B90220F7E70421B1
:1006A000144800F046FD08B90320F0E70121124884
:1006B00000F03FFD01281BD10420E8E710210D4880
:1006C00000F037FD012813D108210A4800F031FD60
:1006D00001280DD10421074800F02BFD012807D186
:1006E0000121054800F025FD10B9012003490870DB
:1006F0000020CCE700180140000801401400002051
:1007000070B50546002405E0601CC4B2C82C01DDAC
:10071000002070BD02213A4802F0F9F90028F3D018
:100720002946374802F0A0F9002405E0601CC4B255
:10073000C82C01DD0020ECE70121314802F0E7F987
:100740000028F3D02E4802F091F9C0B2E1E700B5DD
:1007500087B00121082000F015FF0121880300F077
:100760001EFF4FF46040ADF8180018208DF81B00F4
:1007700003208DF81A0006A9224800F047FC4FF428
:100780006041204800F0EFFC0020ADF804004FF479
:100790008270ADF806000020ADF808000220ADF828
:1007A0000A000120ADF80C004002ADF80E00382020
:1007B000ADF810000020ADF812000720ADF81400CD
:1007C00001A90F4802F07AF801210D4802F01BF947
:1007D000FF20FFF795FF07B000BD10B5044608489D
:1007E00000884FF6C7710840054908800846008810
:1007F000204308800121024802F005F910BD0000E5
:1008000000380040000C014010B500240020CF4902
:1008100008609020FFF774FF0020FFF771FF0020B1
:10082000FFF76EFF0020FFF76BFFFF20FFF768FF69
:1008300044EA0024FF20FFF763FF04430120C4497A
:10084000C1F8B001204610BD08B50121082000F014
:1008500099FE4FF48050ADF8000010208DF8030091
:1008600003208DF802006946BA4800F0CFFB4FF430
:100870008051B84800F077FC0120B4490860FFF7C8
:1008800066FF0020FFF7A9FFFFF7BEFFB24908800F
:1008900008BD10B500240020AC4908600520FFF712
:1008A0002FFFFF20FFF72CFF04460120A849C1F8C5
:1008B000B001204610BD10B504460020A3490860D1
:1008C0000120FFF71DFF2046FFF71AFF0120A04976
:1008D000C1F8B00110BD10B500209C490860062089
:1008E000FFF70EFF01209A49C1F8B00110BD10B505
:1008F0000020964908600420FFF702FF0120944978
:10090000C1F8B00110BD2DE9F04106460C4617466E
:1009100000208E4908600320FFF7F2FEC4F3074071
:10092000FFF7EEFEC4F30720FFF7EAFEE0B2FFF7A1
:10093000E7FE002505E0FF20FFF7E2FE7055681C8A
:1009400085B2BD42F7DB012080490860BDE8F08137
:1009500010B500BFFFF79DFF00F001000028F9D19E
:1009600010BD2DE9F04106460C461746FFF7B3FFD0
:100970000020764908600220FFF7C2FEC4F307405A
:10098000FFF7BEFEC4F30720FFF7BAFEE0B2FFF7A1
:10099000B7FE002504E0705DFFF7B2FE681C85B26B
:1009A000BD42F8DB012069490860FFF7D1FFBDE8CF
:1009B000F0812DE9F04107460E461446F0B2C0F52D
:1009C0008075AC4200DC254612E02A4631463846A6
:1009D000FFF7C7FFAC4200D10BE02F442E44601B51
:1009E00084B2B4F5807F02DD4FF4807500E02546C7
:1009F000EBE700BFBDE8F08110B504462403FFF724
:100A00006AFFFFF7A5FF0020504908602020FFF78C
:100A100077FEC4F30740FFF773FEC4F30720FFF728
:100A20006FFEE0B2FFF76CFE01204949C1F8B0014A
:100A3000FFF78EFF10BD2DE9F05F81460F46164689
:100A4000DFF818B14FEA1738C7F30B0ACAF580541C
:100A5000A64200DC344644E04FEA08314FF48052AD
:100A60005846FFF750FF002508E00AEB05001BF889
:100A70000000FF2800D003E0681C85B2A542F4DB2B
:100A800000BFA54216DA4046FFF7B6FF002507E093
:100A900019F8050005EB0A010BF80100681C85B286
:100AA000A542F5DB4FEA08314FF480525846FFF774
:100AB00080FF04E0224639464846FFF77AFFA64207
:100AC00000D10FE008F101084FF0000AA1442744CB
:100AD000301B86B2B6F5805F02DD4FF4805400E033
:100AE0003446B9E700BFBDE8F09F10B5FFF7F3FE4D
:100AF000FFF72EFF002015490860C720FFF700FE12
:100B000001201349C1F8B001FFF722FF10BD10B555
:100B100000200E490860B920FFF7F2FD01200C49C2
:100B2000C1F8B001032000F088F810BD10B5002016
:100B300006490860AB20FFF7E3FD01200449C1F836
:100B4000B001032000F079F810BD0000B08121420F
:100B500000802142000C01401600002020040020EB
:100B60007FB505460C460121022000F018FDADF8C6
:100B70000850ADF804400020ADF80A00ADF80600BA
:100B800001A9204800F036FE012211461D4801F05F
:100B9000A8F91D208DF8000000208DF80100032029
:100BA0008DF8020001208DF80300684600F065F919
:100BB0000121144801F07AF97FBD3EB505460C4687
:100BC0000121022000F0EBFCADF80450ADF800402C
:100BD0000020ADF80600ADF802006946094800F0B3
:100BE00009FE0121074801F061F93EBD10B5012160
:100BF000044801F024FC18B10121024801F030FC46
:100C000010BD00000004004010B56FF0040000F0BB
:100C10007EF92E4800682E49B0FBF1F02D4908708E
:100C20000846007800EB4001C1EBC0104FF6FF71A1
:100C300001EAC0002849088010BD0146254A127803
:100C40004A434FF0E0235A6100229A611A46126922
:100C500042F001021A6100BF4FF0E022106900F07B
:100C600001021AB100F48032002AF5D04FF0E022E0
:100C7000126922F001024FF0E0231A6100229A610A
:100C800070470146144A12884A434FF0E0235A61E4
:100C900000229A611A46126942F001021A6100BFED
:100CA0004FF0E022106900F001021AB100F4803226
:100CB000002AF5D04FF0E022126922F001024FF035
:100CC000E0231A6100229A617047000000000020B2
:100CD00000127A00180000201A00002001460020AF
:100CE000704701464FF0FF307047014600BF704724
:100CF00000BF704700BF4A4A128802F04002002A33
:100D0000F9D0C2B2464B1B1D1A80704710B586B091
:100D10000446012144F2040000F034FC4FF400705A
:100D2000ADF8140003208DF8160018208DF8170078
:100D300005A93C4800F06AF94FF48060ADF8140052
:100D400004208DF8170005A9364800F05FF925202A
:100D50008DF8000003208DF801008DF802000120BD
:100D60008DF80300684600F088F801940020ADF883
:100D70000800ADF80A00ADF80C00ADF810000C202A
:100D8000ADF80E0001A9264801F0B1FB012240F2A6
:100D90002551234801F043FC0121214801F033FC97
:100DA00006B010BD10B540F225511D4801F01CFDE4
:100DB00010B31B4801F098FCC4B21B48008800F433
:100DC0000040C8B91848008800F4804060B10A2C7F
:100DD00003D000201449088021E01348008840F423
:100DE0000040114908801AE00D2C06D10E480088F9
:100DF00040F480400C49088011E00B480088C0F3A3
:100E00000D000A490C5408480088401C0649088017
:100E100008460088B0F5805F01DD0020088010BD25
:100E2000003801400008014020000020201400206C
:100E30000948804709480047FEE7FEE7FEE7FEE76E
:100E4000FEE7FEE7FEE7FEE7FEE7FEE704480549AA
:100E5000054A064B704700000305000831010008F1
:100E6000882400208866002088260020882600200C
:100E700031490143314A1160704770B500210023A8
:100E80000F22C47804B32D4C246804F4E064C4F544
:100E9000E064210AC1F10403CA40447804FA03F172
:100EA0008478144021430901254C0678A155047823
:100EB00004F01F050124AC4005786D11AD0005F16B
:100EC000E025C5F8004109E0047804F01F0501247D
:100ED000AC401C4D0678761145F8264070BD1A4A84
:100EE0000A400243154B1B1F1A60704739B1134A61
:100EF000121D12680243114B1B1D1A6006E00F4AB7
:100F0000121D126882430D4B1B1D1A607047042886
:100F100008D14FF0E021096941F004014FF0E022CF
:100F2000116107E04FF0E021096921F004014FF061
:100F3000E0221161704700000000FA050CED00E0AE
:100F400000E400E080E100E080FFFF1F10B50446F0
:100F5000CC48844208D10121042000F02DFB00215F
:100F6000042000F029FB46E0C748844208D1012153
:100F7000082000F021FB0021082000F01DFB3AE0D2
:100F8000C248844208D10121102000F015FB002145
:100F9000102000F011FB2EE0BD48844208D1012151
:100FA000202000F009FB0021202000F005FB22E0BA
:100FB000B848844208D10121402000F0FDFA002108
:100FC000402000F0F9FA16E0B348844208D101212C
:100FD000802000F0F1FA0021802000F0EDFA0AE014
:100FE000AE48844207D10121801500F0E5FA0021C6
:100FF000A01500F0E1FA10BD10B50121084600F07F
:10100000DBFA0021012000F0D7FA10BD2DE9F041F4
:10101000024600250026002000230024002791F826
:1010200003C00CF00F0591F803C00CF0100CBCF1DC
:10103000000F03D091F802C04CEA050591F800C0FA
:10104000BCF1000F31D0146800202BE04FF0010CF0
:101050000CFA00F3B1F800C00CEA03069E4220D15E
:1010600083004FF00F0C0CFA03F7BC4305FA03FCA6
:101070004CEA040491F803C0BCF1280F06D14FF0EC
:10108000010C0CFA00FCC2F814C00AE091F803C08D
:10109000BCF1480F05D14FF0010C0CFA00FCC2F86E
:1010A00010C0401C0828D1D31460B1F800C0BCF1B6
:1010B000FF0F34DD546800202EE000F1080C4FF0E3
:1010C000010808FA0CF3B1F800C00CEA03069E42CE
:1010D00021D183004FF00F0C0CFA03F7BC4305FA43
:1010E00003FC4CEA040491F803C0BCF1280F05D1BD
:1010F00000F1080C08FA0CF8C2F8148091F803C04B
:10110000BCF1480F07D100F1080C4FF0010808FAB4
:101110000CF8C2F81080401C0828CED35460BDE8FB
:10112000F0814FF6FF710180022181700421C170AE
:1011300070470246002093680B400BB1012000E08D
:10114000002070470146886880B270470246002040
:10115000D3680B400BB1012000E00020704701462E
:10116000C86880B2704701617047416170470AB139
:10117000016100E041617047C16070474FF4803207
:101180000A43826181618261826982697047024695
:101190000020434B18684FF68073184040EA021055
:1011A00008433F4B186070473E49C8617047F0B52F
:1011B0000A46002300240021002500F00046B6F175
:1011C000004F02D1364EF16901E0354E7168C0F32F
:1011D000034583B200F44016B6F5401F08D121F054
:1011E00070612F4E766826F070662D4F7E6012E09B
:1011F00000F48016B6F5801F06D1032606FA05F422
:10120000A14341F0706106E0460D360103FA06F68F
:10121000B14341F0706122B1460D360103FA06F682
:10122000314300F00046B6F1004F02D11C4EF1618F
:1012300001E01B4E7160F0BD30B500228B071C0F22
:101240000F2303FA04F2164B08338C1053F82430A2
:101250009343134C08348D1044F8253023468C10EA
:1012600053F824308C07240F00FA04F423430C4C69
:1012700008348D1044F8253030BD0A49DC3108604F
:101280007047000000080140000C014000100140C0
:101290000014014000180140001C014000200140E2
:1012A0000000014000002042DF48006840F00100DB
:1012B000DD49086008464068DC490840DA49486072
:1012C00008460068DA490840D749086008460068BF
:1012D00020F4802008600846406820F4FE00486042
:1012E0004FF41F0088607047CF49096821F48031AE
:1012F000CD4A11601146096821F480211160B0F5D2
:10130000803F03D0B0F5802F0ED106E0C6490968B2
:1013100041F48031C44A116007E0C349096841F4CF
:10132000A021C14A116000E000BF00BF704710B5A6
:1013300001460022002300204A11012A02D1BA4CA2
:10134000236806E0022A02D1B74C236A01E0B64CBA
:10135000636A01F01F02012494401C400CB101207B
:1013600000E0002010BD38B50020009000240025CA
:1013700000BF3120FFF7DBFF05460098401C0090BE
:101380000098B0F5A06F01D0002DF2D03120FFF70A
:10139000CEFF08B1012400E00024204638BD0146FC
:1013A0000020A14A106820F0F80040EAC100106057
:1013B0007047A04908607047024600209A4B586861
:1013C00020F47C1042EA01031843974B58607047A1
:1013D00098490866704701460020934A506820F0FB
:1013E00003000843506070478F48406800F00C00CD
:1013F0007047014600208C4A506820F0F0000843F6
:101400005060704701460020874A506820F4E06031
:1014100008435060704701460020834A506820F41A
:10142000605040EAC1005060704729B17E4A527A4C
:1014300002437D4B5A7204E07B4A527A82437A4BD4
:101440005A7270477B49D8310860704701460020C6
:10145000754A506820F440400843506070470021AE
:10146000714A20321170704A82F82010012802D08F
:1014700004280AD104E001216B4A2032117005E0F2
:101480000521694A2032117000E000BF00BF70479B
:101490006949086070476449096A0143624A1162F8
:1014A0007047654944390860704730B50021002213
:1014B000002400235C4D6D6805F00C0121B1042966
:1014C00005D0082923D105E05C4D056022E05B4D85
:1014D00005601FE0544D6D6805F47012524D6D6843
:1014E00005F48034022505EB92421CB9544D554356
:1014F00005600BE04C4D6D6805F400351DB1504D95
:101500005543056002E04D4D5543056002E04B4DEB
:10151000056000BF00BF444D6D6805F0F00109098A
:10152000484D6B5C0568DD4045603F4D6D6805F4D6
:10153000E061090A434D6B5C4568DD4085603A4DCA
:101540006D6805F46051C90A3E4D6B5C4568DD402D
:10155000C560354D6D6805F44041890B3A4D6B5CB3
:10156000C568B5FBF3F5056130BD29B12E4A526956
:1015700002432D4B5A6104E02B4A526982432A4BA5
:101580005A61704729B1284A92690243264B9A61F1
:1015900004E0254A92698243234B9A61704729B13E
:1015A000214AD2690243204BDA6104E01E4AD26923
:1015B00082431D4BDA61704729B11B4AD26802434E
:1015C000194BDA6004E0184AD2688243164BDA609D
:1015D000704729B1144A12690243134B1A6104E09F
:1015E000114A12698243104B1A61704712494039FF
:1015F000086070470F49C86470470B49C87170474D
:101600000948406A40F080700749486270470146C7
:101610000020054A92680A400AB1012000E000203B
:101620007047014988727047001002400000FFF8BF
:10163000FFFFF6FE000042428004424200127A00A0
:1016400000093D00220000203200002010B50446B1
:10165000FE48844208D10121C014FFF7ADFF0021EC
:10166000E014FFF7A9FFC4E0B4F1804F08D10121D5
:101670000846FFF7AEFF00210120FFF7AAFFB8E000
:10168000F348844208D101210220FFF7A2FF002184
:101690000220FFF79EFFACE0EE48844208D1012112
:1016A0000420FFF796FF00210420FFF792FFA0E03F
:1016B000E948844208D101210820FFF78AFF002170
:1016C0000820FFF786FF94E0E448844208D1012116
:1016D0001020FFF77EFF00211020FFF77AFF88E03F
:1016E000DF48844208D101212020FFF772FF00214A
:1016F0002020FFF76EFF7CE0DA48844208D1012108
:101700004014FFF759FF00216014FFF755FF70E008
:10171000D548844209D10121C804FFF74DFF0021BB
:101720004FF40020FFF748FF63E0D048844209D11E
:1017300001210805FFF740FF00214FF48010FFF75B
:101740003BFF56E0CA48844209D101214805FFF712
:1017500033FF00214FF40010FFF72EFF49E0C5488A
:10176000844208D101214020FFF733FF00214020AF
:10177000FFF72FFF3DE0C048844208D101218020BF
:10178000FFF727FF00218020FFF723FF31E0BB4850
:10179000844208D101218015FFF71BFF0021A0150D
:1017A000FFF717FF25E0B648844209D1012108045C
:1017B000FFF702FF00214FF48030FFF7FDFE18E035
:1017C000B048844209D101214804FFF7F5FE002109
:1017D0004FF40030FFF7F0FE0BE0AB48844208D135
:1017E00001218804FFF7E8FE00214FF48020FFF775
:1017F000E3FE10BD00220288944B98420ED0994B14
:1018000098420BD0B0F1804F08D0914B984205D050
:10181000904B984202D0904B984204D14FF68F7370
:101820001A404B881A438D4B984207D08C4B9842F4
:1018300004D04FF6FF431A40CB881A4302808B88AE
:1018400083850B880385814B98420BD0854B98424A
:1018500008D08B4B984205D08A4B984202D08A4BD5
:10186000984201D10B7A038601238382704770B5B9
:10187000002400220023058C4FF6FE7635400584B7
:10188000028C8388048B4FF68F752C40B51E2C403C
:101890000D882C43751E2A400D892A434D882A4302
:1018A0006A4DA8420BD06F4DA84208D0744DA84293
:1018B00005D0744DA84202D0734DA84213D14FF603
:1018C000F7752A404D892A434FF6FB752A408D88CB
:1018D0002A434FF6FF652B404FF6FF552B408D896D
:1018E0002B43CD892B4383800483CD888586028456
:1018F00070BD70B5002400220023058C4FF6EF76F2
:1019000035400584028C8388048B48F6FF752C4093
:101910004FF6FF452C400D884FF6FF7606EA052569
:101920002C434FF6DF752A400D8906EA05152A4338
:101930004D8806EA05152A43444DA84202D0494D78
:10194000A8421DD14FF67F752A404D894FF6FF768C
:1019500006EA05152A434FF6BF752A408D8806EA28
:1019600005152A434FF6FF352B404FF2FF752B40EC
:101970008D8906EA85052B43CD8906EA85052B432B
:1019800083800483CD880587028470BD70B50024F0
:1019900000220023058C4FF6FF6635400584028C3B
:1019A0008388848B4FF68F752C404FF6FC752C4046
:1019B0000D882C434FF6FF552A400D894FF6FF76D0
:1019C00006EA05252A434D8806EA05252A431F4DC8
:1019D000A84202D0234DA8421DD14FF2FF752A40E4
:1019E0004D894FF6FF7606EA05252A434FF6FF3567
:1019F0002A408D8806EA05252A434EF6FF752B40BE
:101A00004DF6FF752B408D8906EA05152B43CD89D0
:101A100006EA05152B4383808483CD88858702845D
:101A200070BD70B5002200230024058C4EF6FF76B1
:101A300035400584038C8488828B48F6FF752A40E4
:101A40004FF6FF452A400D8820E00000002C0140A1
:101A50000004004000080040000C0040001000405E
:101A60000014004000340140004C0140005001408F
:101A70000054014000180040001C004000200040BD
:101A80000040014000440140004801404FF6FF760D
:101A900006EA05252A434DF6FF752B400D8906EA17
:101AA00005352B434D8806EA05352B43FA4DA842F0
:101AB00002D0FA4DA84208D14BF6FF752C408D8913
:101AC0004FF6FF7606EA85152C4384808283CD8805
:101AD000A0F84050038470BD828B4FF2FF331A4050
:101AE0008283828B4FF6FF7303EA01231A438283BA
:101AF0007047F0B50C461546002200210026078CE1
:101B00004EF6FF7C07EA0C070784828B018C4FF6A8
:101B1000FF7707EA043640F6FF473A404FF6FF7773
:101B200007EA05273A434FF6FF7707EA03373A43B8
:101B3000D94FB8420ED0D94FB8420BD0B0F1804F38
:101B400008D0D74FB84205D0D64FB84202D0D64FB2
:101B5000B84206D14DF6FF77394046F480573943F5
:101B600005E047F6FF57394044F4805739438283F4
:101B70000184F0BD828B4FF6F3731A408283828B0F
:101B80000A4382837047F0B50C46154600220021B7
:101B90000026078C4FF6FF6C07EA0C070784828B40
:101BA000018C4FF6FF7707EA04264FF60C773A4090
:101BB0004FF6FF7707EA03172F433A43B64FB84271
:101BC0000ED0B64FB8420BD0B0F1804F08D0B44F12
:101BD000B84205D0B34FB84202D0B34FB84206D195
:101BE0004FF6FF57394046F48077394305E04FF20E
:101BF000FF57394044F48077394382830184F0BD34
:101C0000028B4FF2FF331A400283028B4FF6FF73B1
:101C100003EA01231A4302837047F0B50C461546C8
:101C2000002200210026078C4FF6EF7C07EA0C0704
:101C30000784028B018C4FF6FF7707EA041640F603
:101C4000FF473A404FF6FF7707EA03373A434FF62C
:101C5000FF7707EA05273A438F4FB8420ED08F4FE0
:101C6000B8420BD0B0F1804F08D08D4FB84205D0AC
:101C70008C4FB84202D08C4FB84206D14FF6DF7776
:101C8000394046F01007394305E04FF65F77394099
:101C900044F01007394302830184F0BD028B4FF6F4
:101CA000F3731A400283028B0A4302837047F0B534
:101CB0000C46154600220021068C4FF6FE773E406A
:101CC0000684028B018C4FF60C7632407E1C06EAAD
:101CD00003162E433243704EB0420ED06F4EB042C8
:101CE0000BD0B0F1804F08D06D4EB04205D06D4E94
:101CF000B04202D06C4EB04206D14FF6FD76314074
:101D000044F00106314305E04FF6F576314044F0EA
:101D10000106314302830184F0BD70B505460C46CF
:101D20005D4885420ED05D4885420BD0B5F1804FAD
:101D300008D05B48854205D05A48854202D05A48AF
:101D4000854200D100E000BF208850B92389A288D5
:101D500061882846FFF7ABFFE1882846FFF79EFF22
:101D600025E0208804280AD12389A2886188284692
:101D7000FFF753FFE1882846FFF742FF17E020886E
:101D800008280AD12389A28861882846FFF7FBFE2C
:101D9000E1882846FFF7EEFE09E02389A2886188E2
:101DA0002846FFF7A6FEE1882846FFF795FE70BD9E
:101DB0002DE9F04105460C4600260127608808B948
:101DC000022600E00026A088012801D1022700E0B9
:101DD00001272088A0B92389A28861882846FFF7B7
:101DE00066FFE1882846FFF759FF23893A463146C6
:101DF0002846FFF712FFE1882846FFF701FF13E0AE
:101E00002389A28861882846FFF707FFE1882846D2
:101E1000FFF7F6FE23893A4631462846FFF747FF8B
:101E2000E1882846FFF73AFFBDE8F0810A884B8831
:101E30001A438B881A43CB881A430B891A434B8960
:101E40001A438B891A43A0F8442070474FF6FF715C
:101E5000818000210180C180418001727047002192
:101E6000018041808180C180018141818181C18166
:101E70007047002101804180012181800021C180C3
:101E8000018170470021018041808180C1800181F2
:101E90004181818170470000002C014000340140E5
:101EA0000004004000080040000C004021B10288FE
:101EB00042F00102028004E002884FF6FE731A40ED
:101EC0000280704731B1B0F8442042F40042A0F8DB
:101ED000442005E0B0F84420C2F30E02A0F84420EC
:101EE00070471AB183890B43838102E083898B4356
:101EF000838170478182704741EA0203A0F848302D
:101F000070471AB183890B43838102E083898B4335
:101F10008381704701894FF6F87211400181704743
:101F20000A46002101894FF68F7319401143018140
:101F3000704730B504460D4629462046FFF7F0FFAE
:101F4000208940F00700208130BD2DE9F041044692
:101F50000D4616461F46602D06D13B4601223146EE
:101F60002046FFF75AFE05E03B4601223146204657
:101F7000FFF79DFE29462046FFF7D2FF208940F05B
:101F800007002081BDE8F08130B50C4600210189B1
:101F9000C9B24FF6FF7505EA0325154325432943CA
:101FA000018130BD2DE9F04105460E4617469846A1
:101FB000002443463A4631462846FFF7E5FF2C8980
:101FC0004FF6F870044044F007044FF68F70044059
:101FD00044F070042C81BDE8F081F0B504460D4654
:101FE00016461F463B46324629462046FFF7CCFFA1
:101FF000208940F480402081F0BD018582827047B5
:102000000A46002101884FF68F7319401143018061
:102010007047F0B50C4615461E46002100220023ED
:102020000189028B038C4FF6F877394021434FF634
:10203000FC473A4040F201173A434FF6DD773B4008
:102040004FF6FF7707EA06172F433B4301810283D0
:102050000384F0BD0A460021018B4FF68F731940AF
:102060001143018370470A460021018B48F6FF7334
:1020700019404FF6FF7303EA0223194301837047A7
:102080000A460021818B4FF68F73194011438183DB
:1020900070470A460021818B48F6FF7319404FF6BE
:1020A000FF7303EA022319438183704721B1028839
:1020B00042F08002028004E002884FF67F731A40EB
:1020C0000280704721B1828842F00402828004E0DD
:1020D00082884FF6FB731A408280704721B1828854
:1020E00042F00802828004E082884FF6F7731A40BB
:1020F0008280704721B1828842F00102828004E030
:1021000082884FF6FE731A40828070470A4600218B
:10211000018B4FF6F77319401143018370470A464C
:102120000021018B4FF2FF7319404FF6FF7303EA52
:1021300002231943018370470A460021818B4FF621
:10214000F77319401143818370470A460021818B40
:102150004FF2FF7319404FF6FF7303EA022319434E
:10216000818370470A460021018B4FF6FB731940AB
:102170001143018370470A460021018B4FF6FF335C
:1021800019404FF6FF7303EA022319430183704796
:102190000A460021818B4FF6FB731940114381835E
:1021A00070470A460021818B4FF6FF3319404FF6E6
:1021B000FF7303EA02231943818370470A46002113
:1021C000018B4FF67F7319401143018370470A4614
:1021D0000021018BC1F30E014FF6FF7303EA0223C6
:1021E0001943018370470A460021818B4FF67F73A4
:1021F00019401143818370470A460021818BC1F346
:102200000E014FF6FF7303EA0223194381837047DF
:102210000A460021018C4FF6FD73194011430184D9
:1022200070470A460021018C4FF6F773194011439D
:10223000018470470A460021018C4FF6DF73194074
:102240004FF6FF7303EA02131943018470470A46ED
:102250000021018C4FF67F7319404FF6FF7303EA9C
:1022600002131943018470470A460021018C4FF67E
:10227000FF5319404FF6FF7303EA02231943018409
:1022800070470A460021018C4FF2FF7319404FF648
:10229000FF7303EA02231943018470470A460021B1
:1022A000018C4DF6FF7319404FF6FF7303EA0233BA
:1022B00019430184704730B5002301248C40A3B238
:1022C000048C9C430484048C02FA01F5ADB22C43C7
:1022D000048430BD30B5002304248C40A3B2048CA8
:1022E0009C430484048C02FA01F5ADB22C430484AF
:1022F00030BD70B503460020002418461830012573
:102300008D40ACB21D8CA5431D8409B1082909D1AB
:1023100000EB6100056825F0700505600568154350
:1023200005600EE00D1FC5F34E052844056825F431
:10233000E045056005684FF6FF7606EA022635435C
:10234000056070BD21B1028842F00202028004E003
:1023500002884FF6FD731A400280704721B102884F
:1023600042F00402028004E002884FF6FB731A4038
:102370000280704721B1828842F08002828004E0AE
:1023800082884FF67F731A408280704702884FF62A
:10239000F7731A40028002880A43028070478288DD
:1023A0004FF68F731A40828082880A43828070477A
:1023B00002894FF6F8731A40028102890A430281AA
:1023C000704702894FF67F731A40028102890A43DF
:1023D000028170478184704781857047818670478C
:1023E0000187704781877047A0F8401070470288C6
:1023F0004FF6FF431A40028002880A43028070476A
:102400000146888E70470146088F70470146888FC5
:1024100070470146B1F8400070470146888C70470C
:102420000146088D704702460020138A0B400BB10D
:10243000012000E000207047CA430282704730B597
:102440000246002000230024158A05EA010395892D
:1024500005EA010413B10CB1012000E0002030BDF9
:10246000CA4302827047000010B50446FB4884420C
:1024700009D101218803FFF79FF800214FF4804024
:10248000FFF79AF832E0F648844209D10121480466
:10249000FFF79FF800214FF40030FFF79AF825E08E
:1024A000F048844209D101218804FFF792F8002105
:1024B0004FF48020FFF78DF818E0EB48844209D1F3
:1024C0000121C804FFF785F800214FF40020FFF731
:1024D00080F80BE0E548844208D101210805FFF7A8
:1024E00078F800214FF48010FFF773F810BD2DE944
:1024F000F04786B005460E460024A24600BFA1461E
:102500000027B08900B100BF2F462C8A4CF6FF701F
:102510000440F08804432C82AC894EF6F31004404A
:10252000B08831890843718908430443AC81AC8A7F
:102530004FF6FF400440B0890443AC8201A8FEF787
:10254000B4FFC648874202D1DDF810A001E0DDF8F3
:102550000CA0A88900F4004040B10AEBCA0000EBCF
:102560000A1031684900B0FBF1F807E00AEBCA0035
:1025700000EB0A1031688900B0FBF1F86420B8FB69
:10258000F0F004012009642101FB1089A88900F4FE
:10259000004040B1322000EBC900B0FBF1F000F088
:1025A0000700044308E0322000EB09106421B0FB6F
:1025B000F1F000F00F0004432C8106B0BDE8F08775
:1025C0004FF41651016000218180C18001810C21EE
:1025D000418100218181704710B502460020108A98
:1025E0004FF2FF0318400B884C8823438C88234309
:1025F000CC8823431843108210BD00210180418004
:102600008180C180704721B1828942F40052828169
:1026100004E082894DF6FF731A4082817047F0B55D
:102620000346002400260025002040F66A17B94220
:1026300000D100BF1846C1F3421401F01F06012764
:1026400007FA06F5012C01D10C3004E0022C01D16F
:10265000103000E014301AB107682F43076002E021
:102660000768AF430760F0BD1AB1838A0B438382CA
:1026700002E0838A8B4383827047028A4FF6F073AD
:102680001A400282028A0A430282704782894FF20C
:10269000FF731A40828182890A438281704721B187
:1026A000828942F00202828104E082894FF6FD7342
:1026B0001A4082817047028A4FF6DF731A40028205
:1026C000028A0A430282704721B1028A42F48042A0
:1026D000028204E0028A4BF6FF731A4002827047BE
:1026E000C1F308028280704701468888C0F3080061
:1026F0007047818941F0010181817047028BD2B21C
:102700000283028B42EA012202837047028B02F4A9
:102710007F420283028B0A430283704721B1828A7F
:1027200042F02002828204E0828A4FF6DF731A4070
:102730008282704721B1828A42F01002828204E0D4
:10274000828A4FF6EF731A408282704721B1828AE3
:1027500042F00802828204E0828A4FF6F7731A4040
:102760008282704721B1828942F40042828103E073
:102770008289C2F30E028281704721B1828A42F4BB
:102780000062828204E0828A4FF2FF731A408282E2
:102790007047828A4FF6FB731A408282828A0A430C
:1027A0008282704721B1828A42F00202828204E072
:1027B000828A4FF6FD731A408282704702460020DB
:1027C000B1F5007F00D100BF13880B400BB1012091
:1027D00000E00020704701F40072B2F5007F00D1E4
:1027E00000BFCA430280704770B502460024002330
:1027F0000025002040F66A16B14200D100BFC1F3A7
:10280000421501F01F03012606FA03F3012D02D140
:102810009689334006E0022D02D1168A334001E04A
:10282000968A33400C12012606FA04F416883440C6
:1028300013B10CB1012000E0002070BD10B50022E2
:10284000002340F66A14A14200D100BF0A120124FD
:102850009440A3B2DC43048010BD00000038014066
:102860000044004000480040004C00400050004040
:1028700010B50446BE48844208D101218014FEF7F9
:102880009BFE0021A014FEF797FE16E0B948844293
:1028900008D101210014FEF79CFE00212014FEF750
:1028A00098FE0AE0B448844207D10121C013FEF724
:1028B00090FE0021E013FEF78CFE10BD10B5002243
:1028C000028802F441520B884C8823438C882343AE
:1028D000CC8823430C8923434C8923438C8923438D
:1028E000CC8923431A430280838B4FF2FF74234029
:1028F00083830B8A038210BD2DE9F04F85B0054616
:102900000C464FF0000902274FF000084FF0010B72
:102910000026B246A88B4FF240010840A88302204F
:102920002884B5F81C90A068022801D100BF38E0C7
:10293000A08810B94FF0010B01E04FF0020B8D4859
:10294000854200D100E000BF6846FEF7AEFDDDF82D
:1029500000A0E088B0F5007F0AD14FEA1A2000EB12
:1029600080004000A168B0FBF1F0401D86B20BE092
:102970004FEA4B10BAFBF0F000EB80004000A1687A
:10298000B0FBF1F0401D86B20A20B6FBF0F606F06F
:102990000108A6EB0800C0F34F074FF6FF7000EAEE
:1029A0000828022F01DBFF2F02DD02274FF000086D
:1029B000E08840EA080038432884A088A1890843B9
:1029C000618808432188084340F4006040EA09090F
:1029D000A5F81C9005B0BDE8F08F00210180418072
:1029E0008180C180018141818181C1810721018272
:1029F00070470021018041808180C1800221816077
:102A000000218181704721B1028842F0400202809A
:102A100004E002884FF6BF731A400280704721B16C
:102A2000828B42F48062828304E0828B4FF6FF3314
:102A30001A408283704730B5002400230C11012511
:102A4000A540ABB21AB185881D43858002E0858818
:102A50009D43858030BD1AB183880B43838002E09B
:102A600083888B43838070478181704701468889C2
:102A700070474FF6FF62914204D0028842F48072A0
:102A8000028004E002884FF6FF631A40028070471C
:102A900021B1828842F00402828004E082884FF6ED
:102AA000FB731A408280704702884FF2FF731A400E
:102AB000028002880A4302807047018841F48051F5
:102AC0000180704721B1028842F40052028004E084
:102AD00002884DF6FF731A400280704702460020BC
:102AE000012901D0108B00E0908A70470146088AC6
:102AF0007047B1F5804F04D1028842F480420280D1
:102B000004E002884BF6FF731A40028070470246C9
:102B1000002013890B400BB1012000E0002070471A
:102B2000CA4302817047F0B502460020002400230A
:102B3000002501F00F070126BE40B4B20B1101269B
:102B40009E40B3B2968806EA03051689264016B160
:102B50000DB1012000E00020F0BD10B5002201F011
:102B60000F040123A3409AB2D343038110BD000098
:102B70000030014000380040003C004070B5054680
:102B80000E46FEA001F0ECFF3146FDA001F0E8FF8B
:102B9000002411E0E11704EBD1614911A4EB4111CC
:102BA0001F2904D0295DF9A001F0DAFF03E0295DB7
:102BB000F8A001F0D5FF641CB442EBDBEFA001F0FC
:102BC000CFFF70BD70B505460E46002411E0E11739
:102BD00004EBD1614911A4EB41111F2904D0295DF7
:102BE000EEA001F0BDFF03E0295DEDA001F0B8FF0C
:102BF000641CB442EBDBEBA001F0B2FF70BD2DE929
:102C0000F05FADF58A5D0746884691469A46E64CE8
:102C10000DF5806B4FF4297157A802F0CCF9002212
:102C20001421584605F035FC83461020CBF8DC0112
:102C3000002257A9584605F0D1FD01460DF58050F8
:102C4000C0F83411012257A9584605F0C7FD0146C6
:102C50000DF58050C0F83C11022257A9584605F0E6
:102C6000BDFD01460DF58050C0F83811032257A96B
:102C7000584605F0B3FD01460DF58050C0F83011FF
:102C8000042257A9584605F0A9FD01460DF58050CC
:102C9000C0F82C11052257A9584605F09FFD0146A2
:102CA0000DF58050C0F82811062257A9584605F0A6
:102CB00095FD06460DF580502268D0F8341158462F
:102CC00002F04AFE0DF580506268D0F83C1158467B
:102CD00002F042FE0DF58050A268D0F83811584637
:102CE00002F03AFE0DF58050E268D0F830115846F7
:102CF00002F032FE0DF580502269D0F82C115846B2
:102D000002F02AFE0DF580506269D0F8281158466D
:102D100002F022FE002000900DF58050D0F83431F2
:102D2000D0F83821D0F83C11584603F018FF4FF482
:102D30009C7109A802F03FF9002209A9584604F045
:102D40001DFD054600230DF580500095D0F8282183
:102D5000D0F82C11584604F0BAFE00BF9348FFF794
:102D60005CFB934901445846089105F0B1F932469D
:102D70000DF58050D0F83011584602F0F0FB306865
:102D80000028EBD02B462A463146584603F08FFFE9
:102D90000DF580502946D0F82831D0F82C2158461E
:102DA00004F03BFC01203B4600900DF580502021B3
:102DB000D0F82C21584602F0D4FAC8F800000120BF
:102DC0004B4600900DF580502021D0F82821584620
:102DD00002F0C7FACAF80000012000900DF58050FB
:102DE00032462021D0F86831584602F0BAFA01463E
:102DF0000DF58050D0F86C0101604FF4297157A88F
:102E000002F0D9F84FF49C7109A802F0D4F85846A2
:102E100005F01DFB0DF58A5DBDE8F09F2DE9FF4F24
:102E20009BB0814614461F4601252022494609A829
:102E300002F028F8202211A81C9902F023F820465D
:102E4000E11704EBD1614FEA611BE11704EBD1619B
:102E50004911A4EB411AB846280E8DF86400280CDD
:102E60008DF86500280A8DF866008DF867500126F8
:102E700008E04246442109A801F015FD08F12008A8
:102E80006D1C761C0BF101008642F2DBBAF1000FDB
:102E900004D001AA442109A801F005FD524601A968
:102EA000404601F0EFFF002603E0B85D00B102E00C
:102EB000761CA642F9DB00BFA64203DA01201FB050
:102EC000BDE8F08F0020FAE72DE9FF5FADF5A25DC8
:102ED0000C460DF58050D0F88054334E4FF0FF3142
:102EE000C0F814140DF2AC61CDF8A81604F140003E
:102EF00001F055FD8346BBF1000F07D14FF0FF30C5
:102F00000DF58A6D0DF5805DBDE8F09F002214215E
:102F1000DDF8A80605F0BDFACDF8A8061021DDF809
:102F2000A806C0F8DC1140F22441A1A802F043F841
:102F30000022A1A9DDF8A80605F050FC0DF580518E
:102F4000C1F824040122A1A9DDF8A80605F046FC79
:102F50000DF58051C1F82C040222A1A9DDF8A806C4
:102F600005F03CFC0DF58051C1F828040322A1A90D
:102F7000DDF8A80605F032FC1CE000000D0A000098
:102F80006C656E203D2025640D0A000025303278E6
:102F900000000000253032780D0A00002563000093
:102FA00025630A000A0000003800002000040040E9
:102FB0005AC9D81B0DF58051C1F820040422A1A9DB
:102FC000DDF8A80605F00AFC0DF58051C1F81C04D7
:102FD0000522A1A9DDF8A80605F000FC0DF5805139
:102FE000C1F818040622A1A9DDF8A80605F0F6FB31
:102FF00082460722A1A9DDF8A80605F0EFFB0DF532
:103000008051C1F83C040822A1A9DDF8A80605F00A
:10301000E5FB0DF58051C1F838040922A1A9DDF8BE
:10302000A80605F0DBFB0DF58051C1F834040A2237
:10303000A1A9DDF8A80605F0D1FB0DF58051C1F876
:10304000300408463268D0F82414DDF8A80602F0EF
:1030500083FC0DF580507268D0F82C14DDF8A806BA
:1030600002F07AFC0DF58050B268D0F82814DDF833
:10307000A80602F071FC0DF58050F268D0F820141B
:10308000DDF8A80602F068FC0DF580503269D0F832
:103090001C14DDF8A80602F05FFC0DF58050726983
:1030A000D0F81814DDF8A80602F056FC00200090B5
:1030B0000DF58050D0F82434D0F82824D0F82C1402
:1030C000DDF8A80603F04BFD4FF41B7106A801F0D4
:1030D00072FF002206A9DDF8A80604F04FFB814626
:1030E000012206A9DDF8A80604F048FB07460023E4
:1030F0000DF58050CDF80090D0F81824D0F81C14AD
:10310000DDF8A80604F0E3FC0DF58050D0F81C347F
:10311000D0F84824D0F84C14DDF8A80602F0E9FAFB
:103120000DF58050D0F81834D0F87824D0F87C14FD
:10313000DDF8A80602F0DDFA00230DF580500097B7
:10314000D0F81824D0F81C14DDF8A80604F0BFFC51
:1031500000BF00BFFE48FFF760F9FE49014405913A
:10316000DDF8A80604F0B4FF52460DF58050D0F803
:103170002014DDF8A80602F0F2F9DAF800000028C1
:10318000E8D04B464A465146DDF8A80603F08FFDCD
:103190000DF580504946D0F83034D0F83424DDF8AD
:1031A000A80604F03AFA01202B4600900DF5805055
:1031B0002021D0F83424DDF8A80602F0D2F801204E
:1031C00005F1200300900DF580502021D0F8302427
:1031D000DDF8A80602F0C5F8384607F09EFB00B1FE
:1031E00074E03B463A465146DDF8A80603F05FFD21
:1031F0000DF580503946D0F83834D0F83C24DDF84D
:10320000A80604F00AFA012041F2F4336B4400905E
:103210000DF580502021D0F83C24DDF8A80602F0FE
:10322000A0F8012041F2D4336B4400900DF580509A
:103230002021D0F83824DDF8A80602F092F805F134
:103240006003224641F2D431694401F12000FFF7C6
:10325000E5FD00B97DE74FF000080EE008F16000E1
:10326000295C0DF58050D0F8400410F8080041406A
:1032700008F16000295408F10108A045EEDB202286
:1032800041F2F4316944584601F0FCFD22460DF547
:103290008050D0F840140BF1200001F0F3FD0BF149
:1032A00020010819202241F2D431694401F0EAFDDD
:1032B00004F1400105F14002584601F0F4FA04F12E
:1032C00060000DF58051C1F8140400BF40F22441A4
:1032D000A1A801F070FE4FF41B7106A801F06BFE6F
:1032E000DDF8A80605F0B3F8584601F087FB0DF5A8
:1032F0008050D0F8140403E62DE9FF5FADF5945D2E
:1033000080460C469B460DF58050D0F8B8A2924DF1
:103310004FF0FF31C0F8F8110DF59A61CDF8CC14DB
:10332000602C06DA00200DF5247D0DF5805DBDE8EA
:10333000F09F603C04F1400001F031FB8146B9F19F
:10334000000F01D10020EEE700221421DDF8CC04AB
:1033500005F09FF8CDF8CC041021DDF8CC04C0F8BE
:10336000DC114FF459715AA801F025FE00225AA928
:10337000DDF8CC0405F032FA0DF58051C1F87C027D
:1033800001225AA9DDF8CC0405F028FA0DF5805188
:10339000C1F8780202225AA9DDF8CC0405F01EFA21
:1033A0000DF58051C1F86C0203225AA9DDF8CC0456
:1033B00005F014FA0DF58051C1F8740204225AA9DF
:1033C000DDF8CC0405F00AFA0DF58051C1F8700261
:1033D00005225AA9DDF8CC0405F000FA0DF580515C
:1033E000C1F8680206225AA9DDF8CC0405F0F6F906
:1033F0000DF58051C1F8640207225AA9DDF8CC040A
:1034000005F0ECF90DF58051C1F8600208225AA9C7
:10341000DDF8CC0405F0E2F90DF58051C1F85C024D
:1034200008465946D0F85C32D0F88822DDF8CC0442
:1034300002F05FF90DF580502A68D0F86C12DDF8C3
:10344000CC0402F089FA0DF580506A68D0F8741245
:10345000DDF8CC0402F080FA0DF58050AA68D0F8AF
:103460007012DDF8CC0402F077FA0DF58050EA68AE
:10347000D0F86812DDF8CC0402F06EFA0DF5805039
:103480002A69D0F86412DDF8CC0402F065FA0DF573
:1034900080506A69D0F86012DDF8CC0402F05CFA62
:1034A000002000900DF58050D0F86C32D0F87022DA
:1034B000D0F87412DDF8CC0403F051FB4FF49C718A
:1034C0000CA801F078FD00220CA9DDF8CC0404F072
:1034D00055F906460DF5805042462021D0F8643259
:1034E000DDF8CC0402F005F90DF5805008F120025A
:1034F0002021D0F86032DDF8CC0402F0FAF8002385
:103500000DF580500096D0F86022D0F86412DDF8F6
:10351000CC0404F0DCFA00B982E0304607F0FDF993
:1035200000B17DE0334632460DF58050D0F85C1294
:10353000DDF8CC0403F0BBFB0DF580503146D0F82C
:103540007832D0F87C22DDF8CC0404F066F805E08F
:10355000000400405AC9D81B38000020012041F265
:103560001C236B4400900DF580502021D0F87C2264
:10357000DDF8CC0401F0F5FE012041F2FC136B44B0
:1035800000900DF580502021D0F87822DDF8CC0491
:1035900001F0E7FE5346224641F2FC11694401F175
:1035A0002000FFF73BFC00B93AE0002709E01AF8D9
:1035B000070007F1600118F8011048400AF80700F9
:1035C0007F1CA742F3DB202241F21C2169444846BC
:1035D00001F058FC2246514609F1200001F052FC4E
:1035E00009F120010819202241F2FC11694401F07F
:1035F00049FC04F1400141F23C226A44484601F092
:1036000052F9202208F1400141F23C20684401F0C7
:103610000DFC00B104E00DF58050C0F8F84100BF8A
:103620004FF459715AA801F0C6FC4FF49C710CA8D4
:1036300001F0C1FCDDF8CC0404F009FF484601F0BC
:10364000DDF90DF58050D0F8F8016CE62DE9F05F5A
:10365000ADF5BA5D81460D4692469B460DF580500C
:10366000D0F87087FD4CFEA001680DF58050C0F8C1
:103670002C160DF2C471CDF8C01740F2646157A842
:1036800001F099FC00221421DDF8C00704F001FFCD
:10369000CDF8C0071021DDF8C007C0F8DC1100220A
:1036A00057A9DDF8C00705F099F801460DF58050DF
:1036B000C0F83417012257A9DDF8C00705F08EF8CD
:1036C00001460DF58050C0F83C17022257A9DDF8DD
:1036D000C00705F083F801460DF58050C0F8381793
:1036E000032257A9DDF8C00705F078F801460DF56B
:1036F0008050C0F83017042257A9DDF8C00705F044
:103700006DF801460DF58050C0F82C17052257A919
:10371000DDF8C00705F062F801460DF58050C0F8ED
:103720002817062257A9DDF8C00705F057F801460B
:103730000DF58050C0F82017072257A9DDF8C00703
:1037400005F04CF801460DF58050C0F81C17092211
:1037500057A9DDF8C00705F041F801460DF5805086
:10376000C0F818170A2257A9DDF8C00705F036F887
:1037700007460B2257A9DDF8C00705F02FF80146D0
:103780000DF58050C0F814170C2257A9DDF8C007BA
:1037900005F024F801460DF58050C0F810170D22F1
:1037A00057A9DDF8C00705F019F801460DF580505E
:1037B000C0F80C170E2257A9DDF8C00705F00EF867
:1037C00001460DF58050C0F808170F2257A9DDF803
:1037D000C00705F003F801460DF58050C0F8041746
:1037E000102257A9DDF8C00704F0F8FF01460DF5D7
:1037F0008050C0F824172268D0F83417DDF8C007CD
:1038000002F0AAF80DF580506268D0F83C17DDF898
:10381000C00702F0A1F80DF58050A268D0F8381763
:10382000DDF8C00702F098F80DF58050E268D0F896
:103830003017DDF8C00702F08FF80DF580502269CF
:10384000D0F82C17DDF8C00702F086F80DF580508F
:103850006269D0F82817DDF8C00702F07DF8012072
:1038600041F20C636B4400900DF580502021D0F89C
:103870003C27DDF8C00701F074FD012041F2EC5354
:103880006B4400900DF580502021D0F83827DDF8EA
:10389000C00701F066FD012041F2CC536B4400905B
:1038A0000DF580502021D0F82C27DDF8C00701F05D
:1038B00058FD012041F2AC536B4400900DF580504F
:1038C0002021D0F82827DDF8C00701F04AFD0DF5CA
:1038D0008050B0F82C16A0F830161222514600F293
:1038E000326001F0CFFA202241F20C61694401F10B
:1038F000380001F0C7FA202241F2EC51694401F18D
:10390000780001F0BFFA202241F2CC51694401F164
:10391000B80001F0B7FA202241F2AC51694401F13C
:10392000F80001F0AFFA2022594641F2C460684421
:1039300001F0A8FA20220DF58050D0F8681700F2A7
:10394000E46001F09FFA41F28C526A44D42102F102
:10395000A40000F0A8FF002000900DF58050D0F8E2
:103960003437D0F83827D0F83C17DDF8C00703F01B
:10397000F6F84FF49C7109A801F01DFB002209A97B
:10398000DDF8C00703F0FAFE064600230DF580506F
:103990000096D0F82827D0F82C17DDF8C00704F0DF
:1039A00096F8202241F28C516944A1F1600001F0A7
:1039B000AEFA2A46494641F24C50684401F062FA98
:1039C00005F1200141F26C526A44A2F1400000F07E
:1039D0006AFF0DF5805000F26C522021D0F8243798
:1039E000DDF8C00701F085FE00BF00BF1D48FEF7EF
:1039F00014FD1D4901440891DDF8C00704F068FB7F
:103A00000DF58050D0F80427D0F83017DDF8C00746
:103A100001F0A5FD0DF58050D0F8040707F012FB6A
:103A20000028E3D0334632460DF58050D0F8041715
:103A3000DDF8C00703F03BF90DF580503146D0F8B2
:103A40001C37D0F82027DDF8C00703F0E6FD0DF5A0
:103A50008050D0F80C37D0F8202707E0380000203D
:103A600000900000000400405AC9D81BD0F8241769
:103A7000DDF8C00701F04EFC0DF58050D0F830376E
:103A80001A46D0F80C17DDF8C00702F02EF80DF535
:103A90008050D0F81837D0F80427D0F80C17DDF88C
:103AA000C00701F037FC0DF58050D0F80C0707F087
:103AB000C9FA40B10DF58050D0F83017D0F818078A
:103AC00005F0AAF900B990E7012041F20C536B44CC
:103AD00000900DF580502021D0F80C27DDF8C007AC
:103AE00001F03FFC0DF580502021D0F80837D0F8C8
:103AF0006C27DDF8C00701F0FCFD3B4601220DF507
:103B00008050D0F80817DDF8C00704F0F8F80097E7
:103B10003B460DF5805001973946D0F83027DDF847
:103B2000C00707F0A8FB0DF58050D0F81437D0F887
:103B30000827D0F80C17DDF8C00705F086FE0DF554
:103B40008050D0F830371A46D0F81417DDF8C00787
:103B500001F0CBFF0DF58050D0F814371A46D0F89D
:103B60000417DDF8C00707F039FB0DF58050D0F8D9
:103B700014371946D0F83027DDF8C00701F0CAFB2A
:103B80000DF580503946D0F81037D0F81427DDF8FD
:103B9000C00705F05AFE0DF58050D0F830371A46B0
:103BA000D0F81017DDF8C00701F09FFF0DF5805029
:103BB000D0F8100707F046FA00B916E7012041F2E5
:103BC000EC436B4400900DF580502021D0F8102775
:103BD000DDF8C00701F0C5FBFEA000F0C1FF202109
:103BE00041F20C506844FEF7C9FFFCA000F0B8FF9A
:103BF000202141F2EC406844FEF7C0FF2A464946C6
:103C0000404601F03FF908EB0500202241F20C513B
:103C1000694401F037F908EB050101F12000202289
:103C200041F2EC41694401F02DF940F2646157A87A
:103C300001F0C1F94FF49C7109A801F0BCF9DDF85D
:103C4000C00704F004FC00200DF5BA5DBDE8F09F4C
:103C50002DE9F05FADF5BC5D81460F469246984672
:103C60000DF58050D0F8A8B7DD4CAFF20C200168FC
:103C70000DF58050C0F86C160DF64401CDF84018D3
:103C800000221421DDF8400804F003FCCDF84008C0
:103C90001021DDF84008C0F8DC1140F2A451A7A8BB
:103CA00001F089F90022A7A9DDF8400804F096FD8B
:103CB00001460DF58050C0F874170122A7A9DDF860
:103CC000400804F08BFD01460DF58050C0F87C17CC
:103CD0000222A7A9DDF8400804F080FD01460DF599
:103CE0008050C0F878170322A7A9DDF8400804F037
:103CF00075FD01460DF58050C0F870170422A7A984
:103D0000DDF8400804F06AFD01460DF58050C0F86A
:103D10006C170522A7A9DDF8400804F05FFD0146F5
:103D20000DF58050C0F868170622A7A9DDF84008F5
:103D300004F054FD01460DF58050C0F864170722C9
:103D4000A7A9DDF8400804F049FD01460DF58050B3
:103D5000C0F860170822A7A9DDF8400804F03EFD6E
:103D600001460DF58050C0F85C170922A7A9DDF8BF
:103D7000400804F033FD01460DF58050C0F8581797
:103D80000A22A7A9DDF8400804F028FD01460DF538
:103D90008050C0F854170B22A7A9DDF8400804F0A2
:103DA0001DFD01460DF58050C0F850170C22A7A943
:103DB000DDF8400804F012FD01460DF58050C0F812
:103DC0004C170D22A7A9DDF8400804F007FD0146B5
:103DD0000DF58050C0F848170E22A7A9DDF840085D
:103DE00004F0FCFC01460DF58050C0F84417226831
:103DF000D0F87417DDF8400801F0AEFD0DF58050E5
:103E00006268D0F87C17DDF8400801F0A5FD0DF5DB
:103E10008050A268D0F87817DDF8400801F09CFDCA
:103E20000DF58050E268D0F87017DDF8400801F019
:103E300093FD0DF580502269D0F86C17DDF840082D
:103E400001F08AFD0DF580506269D0F86817DDF841
:103E5000400801F081FD012041F24C636B44009069
:103E60000DF580502021D0F87C27DDF8400801F0C6
:103E700078FA012041F22C636B4400900DF58050DC
:103E80002021D0F87827DDF8400801F06AFA0120F7
:103E900041F20C636B4400900DF580502021D0F866
:103EA0006C27DDF8400801F05CFA012041F2EC5388
:103EB0006B4400900DF580502021D0F86827DDF884
:103EC000400801F04EFA0DF580502021D0F86437FB
:103ED000D0F8AC27DDF8400801F00BFC0DF5805060
:103EE000D0F8640707F0AEF8012808DB0DF5805024
:103EF000D0F86417D0F8700704F08EFF00B93DE1E8
:103F00000DF580502021D0F86037D0F8B027DDF8CB
:103F1000400801F0EEFB0DF58050D0F8600707F087
:103F200091F8012808DB0DF58050D0F86017D0F823
:103F3000700704F071FF00B920E10DF58050B0F872
:103F40006C16A0F870161222514600F2726000F052
:103F500099FF202241F24C61694401F1380000F0E0
:103F600091FF202241F22C61694401F1780000F0B8
:103F700089FF202241F20C61694401F1B80000F090
:103F800081FF202241F2EC51694401F1F80000F078
:103F900079FF2022414641F20470684400F072FF2C
:103FA0002022594641F22470684400F06BFF41F230
:103FB000CC526A44D42102F1A40000F074FC002029
:103FC00000900DF58050D0F87437D0F87827D0F8ED
:103FD0007C1707E00D0A723A00000000733A0000F7
:103FE00038000020DDF8400802F0B9FD4FF41B71E5
:103FF0000CA800F0E0FF00220CA9DDF8400803F057
:10400000BDFB054601220CA9DDF8400803F0B6FB14
:10401000064600230DF580500095D0F86827D0F8AB
:104020006C17DDF8400803F052FD0DF58050424654
:104030002021D0F84837DDF8400801F05AFB0DF593
:1040400080505A462021D0F84437DDF8400801F06E
:1040500050FB00230DF580500096D0F84427D0F88F
:104060004817DDF8400803F032FD202241F2CC5120
:104070006944A1F1600000F04AFF3A46494641F226
:104080008C50684400F0FEFE07F1200141F2AC5272
:104090006A44A2F1400000F006FC0DF5805000F2E9
:1040A000AC522021D0F85C37DDF8400801F021FB4C
:1040B0000DF58050D0F84C37D0F86027D0F8641751
:1040C000DDF8400801F026F90DF58050D0F8703782
:1040D0001A46D0F84C17DDF8400801F006FD0DF542
:1040E0008050D0F84C0706F0ADFF00B946E02B46F3
:1040F0002A460DF58050D0F86017DDF8400802F030
:10410000D6FD334632460DF58050D0F84C17DDF819
:10411000400802F0CCFD32462946DDF8400802F0A6
:10412000DBF80DF580503146D0F85437D0F85827D9
:10413000DDF8400803F071FA0DF58050D0F85037E3
:10414000D0F85827D0F85C17DDF8400801F0E2F805
:104150000DF58050D0F870371A46D0F85017DDF8BA
:10416000400801F0C2FC0DF58050D0F86417D0F87B
:10417000500704F051FE00B916E000BF88A000F01F
:10418000EFFC40F2A451A7A800F015FF4FF41B71FB
:104190000CA800F010FFDDF8400804F058F90120E9
:1041A0000DF5BC5DBDE8F09F82A000F0D9FC40F2A7
:1041B000A451A7A800F0FFFE4FF41B710CA800F05B
:1041C000FAFEDDF8400804F042F90020E8E770B597
:1041D000ADF5747D04467CA000F0C2FC142286A1DB
:1041E00007A800F094FE04A8ECA905ABDCAACDE971
:1041F000001006A9E4A8FEF702FD84A000F0B0FCC0
:104200002021ECA8FEF7BAFC85A000F0A9FC202133
:10421000E4A8FEF7B3FC86A000F0A2FC2021DCA8F5
:10422000FEF7ACFC86A000F09BFCA1882068FEF79E
:10423000A5FC90A000F094FC8CA8ECA9DCAACDE928
:1042400000210290A188E4AB07AA2068FFF7FEF9DD
:1042500094A000F085FC4CA82021DCAACDE9002127
:104260000290A08800F140012023E4AA8CA8FEF768
:104270002BFE064631464CA8FEF780FC96A000F0C7
:104280006FFC0CA82023ECAA314600904CA8FFF745
:1042900033F80546002D03DA9DA000F061FC0CE028
:1042A000A1880CA8FEF76AFC9EA000F059FCA1882A
:1042B0000CAA88184021FEF761FC9DA000F050FC7C
:1042C000A0880CA908442030A1880CAA1144DCAABB
:1042D000CDE900210290A188E4AB07AA0CA8FFF762
:1042E000B7FC00200DF5747D70BD70B5ADF51E7D79
:1042F00004469BA000F034FC03A896A904AB86AA50
:10430000CDE9001005A98EA8FEF779FC3FA000F0CA
:1043100027FC202196A8FEF731FC41A000F020FCEC
:1043200020218EA8FEF72AFC41A000F019FC2021D4
:1043300086A8FEF723FC42A000F012FCA1882068AA
:10434000FEF71CFC57A000F00BFC46A8202186AA13
:10435000CDE900210290A18820238EAA2068FEF7D3
:10436000B3FD0646314646A8FEF708FC5AA000F009
:10437000F7FB06A8202396AA3146009046A8FEF730
:10438000BBFF0546002D03DA61A000F0E9FB03E066
:10439000A18806A8FEF7F2FB00200DF51E7D70BD7A
:1043A0000D0A766572696679206661696C210D0A6D
:1043B000000000000D0A76657269667920706173ED
:1043C00073210D0A000000000D0A2A2A2A2A2A2A2F
:1043D0002A2A2A2A2A2A2A2A2A2A2A2A2A20534DFB
:1043E00032202A2A2A2A2A2A2A2A2A2A2A2A2A2A2F
:1043F0002A2A2A2A2A0D0A00414C494345313233E0
:10440000405941484F4F2E434F4D00000D0A507206
:104410006976617465206B6579A3BA20000000009D
:104420005075626C6963206B65792078A3BA2000AF
:104430005075626C6963206B65792079A3BA20009E
:104440000A606060606060606060606060606060C2
:1044500060606020506C61696E7465787420606083
:10446000606060606060606060606060606060604C
:10447000600A00000A6060606060606060606060A8
:1044800060606060606060205369676E206060609B
:104490006060606060606060606060606060600A72
:1044A000000000000A6060606060606060606060E2
:1044B0006060606060606020436970686572746508
:1044C0007874206060606060606060606060606000
:1044D0006060606060600A000A60606060606060E8
:1044E000606060606060606060606020416674650C
:1044F00072204465637279707420606060606060EF
:10450000606060606060606060606060600A0000C1
:10451000736D325F64656372797074206572726F57
:1045200072210A000D0A7220616E6420733A000045
:104530000A606060606060606060606060606060D1
:1045400060606020566572696679206060606060B6
:10455000606060606060606060606060600A000071
:104560000D0A2A2A2A2A2A2A2A2A2A2A2A2A2A2AE8
:104570002A2A2A2A2A20534D3220776974686F75B7
:1045800074207369676E202A2A2A2A2A2A2A2A2A4C
:104590002A2A2A2A2A2A2A2A2A2A0D0A0000000060
:1045A00001460A78CB780B70CA704A788B784B70CA
:1045B0008A7070470146002903DB0F2901DCEC48B3
:1045C0007047102903DB3F2901DCEA48F8E70020A7
:1045D000F6E730B50446002B05DB0F2B03DC84EA3D
:1045E0000100504030BD102B0ADB3F2B08DC04EAF1
:1045F000010004EA0205284301EA02052843F1E725
:104600000020EFE730B50446002B05DB0F2B03DC61
:1046100084EA0100504030BD102B07DB3F2B05DC46
:1046200004EA010022EA04052843F4E70020F2E747
:104630000146480240EAD15048404A0442EAD13299
:10464000504070470146C80340EA51404840CA05FF
:1046500042EA512250407047C7490160C749416052
:10466000C7498160C749C160C7490161C749416104
:10467000C7498161C749C16170472DE9F04FADF568
:104680000E7D054600240FE005F1200050F82400BF
:104690004AA941F82400C0480078012803D101EB61
:1046A0008400FFF77DFF641C102CEDDB10242FE04D
:1046B000A4F110014AAA52F82110A4F109024AAB50
:1046C00053F822205140E21E53F82220D303E21E69
:1046D0004AAF57F8222043EA524281EA0200FFF72C
:1046E000B1FFA4F10D014AAA52F82110CA01A4F1A8
:1046F0000D014AAB53F8211042EA51614840A11F15
:104700004AAA52F8211048404AA941F82400641CE2
:10471000442CCDDB00240BE04AA850F824004AAA20
:10472000211D52F8211048400AA941F82400641CB8
:10473000402CF1DB2E68D5F80480A8680990E86861
:104740000890D5F8109068690790A8690690E86904
:104750000590002481E02046FFF72CFF2246E11758
:1047600004EBD1614911A4EB411100FA01FA204692
:10477000FFF720FF2346E11704EBD1614911A4EBB9
:104780004111C1F12001C8404AEA000A300340EA61
:104790001650484450444FEAC01B2046FFF70AFF1A
:1047A00082462746E01704EBD0604011A4EB40108E
:1047B0000AFA00FA2046FFF7FDFEE11704EBD1618B
:1047C00049112246A4EB4111C1F12001C8404AEA37
:1047D000000A300340EA1650484450444BEA506007
:1047E00000940490300340EA165104984840039026
:1047F000234641463046099AFFF7EBFE08990144EB
:10480000039808440AA951F824100844029023464A
:104810004846DDE90621FFF7F5FE059901440498B5
:1048200008444AA951F824100844019009980890B6
:104830004FEA482040EAD8500990B046029E0698B8
:1048400005900798C10441EA50300690CDF81C90BD
:104850000198FFF7EDFE8146641C402CFFF67BAF0C
:10486000286870402860686880EA08006860A86866
:1048700009994840A860E86808994840E8602869B4
:1048800080EA090028616869079948406861A86959
:1048900006994840A861E86905994840E8610DF526
:1048A0000E7DBDE8F08F2DE9F0419AB007460E4627
:1048B000904602A8FFF7D0FE002409E007EB841120
:1048C00040220AA800F0DEFA02A8FFF7D6FE641C18
:1048D000B4EB961FF2D3F00001902F480078012826
:1048E00002D101A8FFF75CFE06F03F0507EB84113B
:1048F0002A460AA800F0C6FA80210AA84155372D99
:104900000CD8C5F13B010AAA2A44501C00F031FB27
:104910000199199102A8FFF7B0FE12E0C5F13F011D
:104920000AAA2A44501C00F024FB02A8FFF7A5FEA7
:104930003C210AA800F03FFB0199199102A8FFF75A
:104940009CFE15480078012809D1002405E002A941
:1049500001EB8400FFF724FE641C082CF7D320220F
:1049600002A9404600F08EFA40461AB0BDE8F08138
:104970001945CC798A9D877A6F168073B9B214492C
:10498000D742241700068ADABC306FA9AA3831163C
:104990004DEE8DE34E0EFBB0ECBB0008704770B5DA
:1049A000064600F033FB056806F10B0020F0070413
:1049B000B4429CBF002070BD2B466A68BAB1106833
:1049C000A04210D304F1080188423CBF50685860EF
:1049D00007D35168101941601168091B01605860C4
:1049E0001460101D70BD13465268002AE7D121469D
:1049F000284600F013FB0028DED170BD70B50446D8
:104A0000051F00F003FB0068002C14BF446870BD54
:104A1000002C18BFAC423CBF20466468F8D3016844
:104A20000A18AA4218BF456003D12A6805461144F6
:104A3000016028684119A1421CBF6C6070BD6168AB
:104A4000696021680844286070BD53EA020C00F0D8
:104A500069802DE9F04B4FF00006002B1FBFB3FA21
:104A600083F503FA05F424FA05F65E4012BF1643F7
:104A7000B2FA82F502FA05F4C5F120051EBF22FA4A
:104A800005FC44EA0C04203556EA044C4FEA144471
:104A900018BF641C4FF000084FF00009904271EB02
:104AA000030C39D3002919BFB1FA81F701FA07F6CF
:104AB000B0FA80F700FA07F6C7F120071EBF20FA08
:104AC00007FC46EA0C062037B6FBF4FCA7EB05070B
:104AD000103F07F01F0BCBF120060CFA0BFB2CFA52
:104AE00006F644BFB3460026202FA4BF5E464FF013
:104AF000000B5BEA060C08BF4FF0010B19EB0B092A
:104B0000ABFB027C48EB0608C01B06FB02CC0BFB90
:104B100003CC71EB0C01C1E70B4602464146484607
:104B2000BDE8F08B13B54FF000004FF00001AFF37C
:104B30000080BDE81C407047B2F120030AD5C2F1E5
:104B4000200320FA02F001FA03F321FA02F140EA0D
:104B50000300704721FA03F04FF000017047000096
:104B60000FB4044910B503AA029800F011FB10BC61
:104B70005DF814FB1C00002070B5044685690068D0
:104B8000C10601D5302600E02026C00707D070BD41
:104B9000D4E9012130469047206A401C20626D1EF6
:104BA000F6D570BD70B5044685690078C00707D199
:104BB00070BDD4E9012120209047206A401C20626A
:104BC0006D1EF6D570BD70B50C460546012A05D0A0
:104BD0002878800600D5EA69002302E0012305E079
:104BE0005B1C934202D2E05C0028F9D1A869E61868
:104BF000C01AA861286A184428622846FFF7BCFF3B
:104C000004E0D5E9012114F8010B9047B442F8D330
:104C10002846FFF7C7FF70BD2DE9F0410646002486
:104C200010687529314616A510D0AFF30080002812
:104C300002DA404213A507E031688A0701D512A5C0
:104C400002E0490704D511A5012401E0AFF300807B
:104C500000210A2206F1240709E0B0FBF2FCB0FBB8
:104C6000F2F302FB1C00303078541846491C00282F
:104C7000F3D123462A463046BDE8F04100F018BA89
:104C8000000000002D0000002B00000020000000AC
:104C900070B504460D4621461068AFF300802188A8
:104CA000090502D50F4A7A4402E00E4A7A440E32D0
:104CB000002104F1240305E000F00F060009965DD1
:104CC0005E54491C0028F7D120780023000704D542
:104CD000702D02D009B1022311322046BDE8704088
:104CE00000F0E6B9EA7100002DE9F05F894604465C
:104CF0004FF0000ADFF824B1FB44C0F820A02046A2
:104D0000E168884700287DD0252806D0D4E9012114
:104D10009047206A401C2062F1E700255F4620464C
:104D2000E16888472028064607DB312E05D2B819EE
:104D300010F8200C08B10543F1E7A80701D525F0CC
:104D40000405C4F81CA00027C4F818A02A2E09D016
:104D5000304600F0D8FA38B304EB8708303EC8F884
:104D6000186019E059F8041B204604EB8702916192
:104D7000E1688847012F064618D1E069002820DA4B
:104D800025F020051DE0D8F8180000EB800006EBA8
:104D900040003038C8F818002046E16888470646C9
:104DA00000F0B1FA0028EED1012F0AD02E2E08D142
:104DB0002046E16888477F1C0646022F45F0200503
:104DC000C4DBA069002803DA404245F00105A06178
:104DD000E80701D025F01005A6B1A6F14100192879
:104DE00002D8203645F400654A4631462046256003
:104DF0004D46FBF7F7F960B1012807D0ED1D25F00E
:104E0000070000E007E000F1080978E705F1040970
:104E100075E730467AE7206ABDE8F09FC071000070
:104E20000446AFF300802046FBF7F8F940EA01039F
:104E300010B59B070FD1042A0DD310C808C9121F43
:104E40009C42F8D020BA19BA884201D9012010BD7D
:104E50004FF0FF3010BD1AB1D30703D0521C07E04A
:104E6000002010BD10F8013B11F8014B1B1B07D1AE
:104E700010F8013B11F8014B1B1B01D1921EF1D11F
:104E8000184610BD032A40F2308010F0030C00F0E9
:104E9000158011F8013BBCF1020F624498BF11F874
:104EA00001CB00F8013B38BF11F8013BA2F104022D
:104EB00098BF00F801CB38BF00F8013B11F00303A5
:104EC00000F02580083AC0F0088051F8043B083A09
:104ED00051F804CBA0E80810F5E7121D5CBF51F8AB
:104EE000043B40F8043BAFF30080D20724BF11F825
:104EF000013B11F801CB48BF11F8012B24BF00F88A
:104F0000013B00F801CB48BF00F8012B704710B5FA
:104F1000203AC0F00B80B1E81850203AA0E81850B1
:104F2000B1E81850A0E81850BFF4F5AF5FEA027C72
:104F300024BFB1E81850A0E8185044BF18C918C0E1
:104F4000BDE810405FEA827C24BF51F8043B40F882
:104F5000043B08BF7047D20728BF31F8023B48BF67
:104F600011F8012B28BF20F8023B48BF00F8012BA5
:104F700070474FF000020429C0F0128010F0030CBB
:104F800000F01B80CCF1040CBCF1020F18BF00F83C
:104F9000012BA8BF20F8022BA1EB0C0100F00DB8EB
:104FA0005FEAC17C24BF00F8012B00F8012B48BF49
:104FB00000F8012B70474FF0000200B513469446ED
:104FC0009646203922BFA0E80C50A0E80C50B1F161
:104FD0002001BFF4F7AF090728BFA0E80C5048BF75
:104FE0000CC05DF804EB890028BF40F8042B08BF13
:104FF000704748BF20F8022B11F0804F18BF00F80F
:10500000012B7047704770477047704700487047E2
:105010002C240020704770477047704738B504460D
:105020000A4600206946AFF30080002808BF38BD5B
:1050300002460099204600F0C1F8012038BD012049
:1050400000F0EEB8F8B5AFF30080054600200C463E
:10505000102000BF0646A819A0420DD93246694665
:105060000020AFF30080070008BF00F0D9F80098D7
:10507000A04218BF0546C419FFF7C8FF05600746E0
:10508000F01D20F007004619284600F00AF8B44247
:1050900008BFF8BDA21B31463868BDE8F84000F0F3
:1050A0008DB800210160C0E90110704710207047E1
:1050B0002DE9F0470D4699469246044600F1240832
:1050C0000168880604D5E06921F01001216000E044
:1050D0000120A84201DD471B00E00027A1697A19E1
:1050E00002EB0900081AA0612078C00602D420460D
:1050F000FFF742FD002608E0D4E901211AF8060076
:105100009047206A401C761C20624E45F4DB2078D4
:10511000C0060AD52046FFF72FFD06E0D4E901219D
:1051200030209047206A401C2062381EA7F10107FA
:10513000F4DC07E0D4E9012118F805009047206A63
:10514000401C2062281EA5F10105F3DC2046FFF774
:1051500029FD2078000602D50220BDE8F087012055
:10516000FBE710B5436913B1AFF3008001E0FFF72F
:105170002AFD012010BD127800F124010A700022DE
:105180004A700122EDE711684FF0FF32E9E70000B5
:10519000074B70B50D467B4400F02FF804462846B7
:1051A000FBF79FFD10B14FF0FF3070BD204670BD82
:1051B0005BBBFFFF00487047242400200346406883
:1051C0008C46002818BF88423CBF03464068F8D38D
:1051D00018681844884207D00CF1030020F007003B
:1051E000001D411A521A0146081D0A60FFF706BC4D
:1051F00001694A1C02610878704700B58FB0CDE99B
:1052000001310021059105497944CDE9031011468A
:105210006846FFF769FD0FB000BD0000E5FFFFFF26
:1052200010B500F02FF8BDE8104000F025B8754625
:10523000FFF7C0FFAE4605006946534620F0070061
:10524000854618B020B5FBF701FEBDE820404FF0C1
:1052500000064FF000074FF000084FF0000B21F060
:105260000701AC46ACE8C009ACE8C009ACE8C0092D
:10527000ACE8C0098D467047002801D0FBF738BD67
:105280007047000010B5012805D0002103A000F0F0
:1052900021F8012010BD09A1F8E700005349475249
:1052A000544D454D3A204F7574206F6620686561F6
:1052B00070206D656D6F7279000000003A204865BE
:1052C0006170206D656D6F727920636F7272757099
:1052D0007465640070B505460C460A2000E06D1C3C
:1052E000FBF703FD35B128780028F8D102E0641CF3
:1052F000FBF7FBFC14B120780028F8D1BDE8704022
:105300000A20FBF7F2BC30380A2801D2012070478E
:1053100000207047F8B504460F4615461E46D4F8DF
:10532000D00100B1F8BDE069401CE061E0691828D7
:105330000BDA1B2104F12000E26940F82210D4F8B6
:10534000E00110B1204604F027FA2B46012239462D
:105350002046009604F0A0F8E069401EE06100BF1E
:10536000E0E72DE9F04F87B004460E469246984696
:10537000D4F8D00108B9002E03DA002007B0BDE848
:10538000F08F1EB9109808B10020F7E7504605F0DD
:1053900059FE68B9109848B1002503E0002008F8CC
:1053A00005006D1CB542F9DB3046E7E70020E5E774
:1053B000E069401CE061E06918280BDA8D2104F1F6
:1053C0002000E26940F82210D4F8E00110B1204634
:1053D00004F0E2F9504603F05FFD2068002876D122
:1053E00004210591DAF8000020F0004004900498B0
:1053F000401E0490DDE9040100FB01F7DAF8041017
:10540000049851F820904FF0000B04E00BF1010BD1
:105410004FEA19297F1CB9F1000FF7D105989BFBC2
:10542000F0F100FB11BB002E0ADDB74208DD0E21B2
:10543000204603F01DFAE069401EE06100209DE770
:10544000109858B1F01B0390002503E0002008F8E5
:1054500005006D1C03988542F8DB01E000200390F5
:10546000BBF1000F12D0DAF804200498411E049119
:1054700052F82090ABF1010506E00398284408F8A3
:1054800000904FEA19296D1E002DF6DA5D461AE0EC
:10549000DAF804200498411E049152F820900598EF
:1054A000401E06900AE0039842190698104408F836
:1054B00000904FEA19290698401E06900698002889
:1054C000F1DA05980544BD42E2DB3FE0FFE75046D4
:1054D000D4F87C1100F0ADFA002700BFD4F8D00159
:1054E00000B132E0D4F87C0105F0ACFD28B9109889
:1054F00010B1B74201D128E027E0002E0ADDB74203
:1055000008DB0E21204603F0B3F9E069401EE0619C
:10551000002033E7D4F87C3119464FF480722046DE
:1055200005F0B1FD02900298C0B201903D4605E041
:10553000681E18F8000008F805006D1E002DF7DC45
:10554000019888F800007F1CC8E700BFE069401E92
:10555000E061109808B1304610E738460EE72DE9B3
:10556000F04104460F469046D4F8D00108B1BDE89A
:10557000F081E069401CE061E06918280BDA142131
:1055800004F12000E26940F82210D4F8E00110B1E3
:10559000204604F001F90025D4F8780106F012FB4A
:1055A00000BF6D1CD4F878010560204600F031F88A
:1055B0000646206830B9D4F878014168681E41F881
:1055C00020600AE02068B6FBF0F100FB1161D4F81E
:1055D00078014268681E42F820103946D4F87801F4
:1055E00003F01AFC0028DCDBD4F8780103F054FC4B
:1055F0003B463A462046D4F8781100F076FA414608
:10560000D4F8780100F015FAE069401EE06100BFAF
:10561000ADE72DE9F0410346D868202820DDD3F816
:105620002C01801CC3F82C01D3F82C01242827DA84
:1056300003F19800D3F82C1150F82180D868A0F11C
:105640002001404604F088F88046D3F82C01401C25
:1056500003F1980151F8200080444046BDE8F081F4
:10566000D3F82C01401CC3F82C01D3F82C012528B9
:1056700006DA03F19800D3F82C1150F82100EDE779
:105680000020C3F82C0100240D251CE0252D00D19D
:10569000002503F1980050F8257050F82400381ABE
:1056A000D3F83011461ABE4202D20020C3F83001AE
:1056B000BE4202D90120C3F8300103F1980040F83E
:1056C0002460641C6D1C252CE0DBD86820280DDDCF
:1056D000D3F89880D868A0F12001404604F03CF847
:1056E00080469C20C05880444046B7E7D3F89800D5
:1056F000B4E72DE9FF5F04460F4615469A46D4F8F5
:10570000D00108B1BDE8FF9FE069401CE061E0699D
:1057100018280BDA8C2104F12000E26940F82210ED
:10572000D4F8E00110B1204604F036F8504606F0F7
:1057300049FA002F03DCE069401EE061E2E706E081
:105740006D1C7F1E1FB9E069401EE061DAE7287812
:105750000028F5D02068002851D104200390039838
:1057600097FBF0F8039897FBF0F100FB11700290A3
:105770004FF00009029870B108F10108CB4607E02C
:105780004FEA092915F8010B40EA09090BF1010B51
:1057900002988345F4DBCAF80080A06940450ADA24
:1057A000D4F8800038B10321204603F061F8E069A5
:1057B000401EE061A6E7029828B1A8F10108DAF8D6
:1057C000040040F82890A8F1010612E04FF0000B09
:1057D00007E04FEA092915F8010B40EA09090BF126
:1057E000010B03988345F4DBDAF8040040F82690B7
:1057F000761E002EEADA504603F04EFB1AE0002631
:1058000015E0D4F8D00100B113E053464FF4807294
:105810005146204605F08CF8A85D00900098019054
:10582000534651462046019A02F069FA761CBE4260
:10583000E7DB00BFE069401EE06100BF62E72DE9E1
:10584000F05F04460F4615469846D4F8D00108B1DB
:10585000BDE8F09F2068A84204D14146384600F0D8
:10586000E8F8F5E7E069401CE061E06918280BDA28
:105870000D2104F12000E26940F82210D4F8E00183
:1058800010B1204603F088FF384602F00CFA824639
:105890003846D4F87C1100F0CCF84FF00109012013
:1058A000D4F87C1102F059FA00BFD4F8900106F048
:1058B00089F901212046D4F8782100F0A1F80026CA
:1058C0002FE0D4F87C01406850F826202046D4F818
:1058D0008C31D4F8781103F05AFC04F5C6720CCA66
:1058E00019462046FFF716FD9DB91021012003F04F
:1058F00033FF8346D4F8783119465A46204603F0E0
:1059000046FCD4F8783119465A46204603F03FFC4D
:1059100006E0D4F8783119462A46204603F037FCD1
:10592000761CD4F87C010068B042CADCD4F8D001FF
:1059300010B9B9F1000FB8D000BF00BF4146D4F88C
:10594000900100F076F84146504602F006FAE06910
:10595000401EE06100BF7BE72DE9F05F04460D4685
:105960009246D4F8D00110B10020BDE8F09FE06964
:10597000401CE061E06918280BDA4E2104F1200098
:10598000E26940F82210D4F8E00110B1204603F09B
:1059900003FFD4F8DC6167683146204603F018FE47
:1059A000D4F800800020C4F8800052462046D4F885
:1059B0008C1102F0E2F983460120C4F88000D4F88B
:1059C0008C01006820F00049A069484508DA0321ED
:1059D000204602F04DFFE069401EE0610020C4E770
:1059E0003946204603F0F4FD2B4642462046D4F8C3
:1059F0008C11FFF724FFE069401EE0615846B4E7D0
:105A0000F0B507460C4615461CB9284606F0DAF8EC
:105A1000F0BD0026002C02DA4FF0004664422A4610
:105A20002146384605F002FC28683043286000BF54
:105A3000EEE72DE9F04706460D46AE4200D00DB91F
:105A4000BDE8F0871EB9284606F0BCF8F8E72868DC
:105A500020F00049306820F00047D6F804A0D5F8BF
:105A600004803C4603E0002048F82400641C4C45B8
:105A7000F9DB002404E05AF8240048F82400641CF0
:105A8000BC42F8DB3068286000BFD9E7F8B50446AF
:105A90000F4615461E46D4F8D00100B1F8BDE069A6
:105AA000401CE061E06918280BDA082104F12000AD
:105AB000E26940F82210D4F8E00110B1204603F06A
:105AC0006BFE29462046D4F87821FFF799FF00960F
:105AD0004FF0FF3239462046D4F8783103F0DCFC31
